{
  "address": "0x50042B016d59643a670BDa6Df9D803Af45865dd7",
  "abi": [
    {
      "inputs": [
        {
          "internalType": "string",
          "name": "tokenName",
          "type": "string"
        },
        {
          "internalType": "string",
          "name": "tokenSymbol",
          "type": "string"
        },
        {
          "internalType": "uint256",
          "name": "_purchaseRatio",
          "type": "uint256"
        },
        {
          "internalType": "uint256",
          "name": "_betPrice",
          "type": "uint256"
        },
        {
          "internalType": "uint256",
          "name": "_betFee",
          "type": "uint256"
        }
      ],
      "stateMutability": "nonpayable",
      "type": "constructor"
    },
    {
      "anonymous": false,
      "inputs": [
        {
          "indexed": true,
          "internalType": "address",
          "name": "previousOwner",
          "type": "address"
        },
        {
          "indexed": true,
          "internalType": "address",
          "name": "newOwner",
          "type": "address"
        }
      ],
      "name": "OwnershipTransferred",
      "type": "event"
    },
    {
      "inputs": [],
      "name": "bet",
      "outputs": [],
      "stateMutability": "nonpayable",
      "type": "function"
    },
    {
      "inputs": [],
      "name": "betFee",
      "outputs": [
        {
          "internalType": "uint256",
          "name": "",
          "type": "uint256"
        }
      ],
      "stateMutability": "view",
      "type": "function"
    },
    {
      "inputs": [
        {
          "internalType": "uint256",
          "name": "times",
          "type": "uint256"
        }
      ],
      "name": "betMany",
      "outputs": [],
      "stateMutability": "nonpayable",
      "type": "function"
    },
    {
      "inputs": [],
      "name": "betPrice",
      "outputs": [
        {
          "internalType": "uint256",
          "name": "",
          "type": "uint256"
        }
      ],
      "stateMutability": "view",
      "type": "function"
    },
    {
      "inputs": [],
      "name": "betsClosingTime",
      "outputs": [
        {
          "internalType": "uint256",
          "name": "",
          "type": "uint256"
        }
      ],
      "stateMutability": "view",
      "type": "function"
    },
    {
      "inputs": [],
      "name": "betsOpen",
      "outputs": [
        {
          "internalType": "bool",
          "name": "",
          "type": "bool"
        }
      ],
      "stateMutability": "view",
      "type": "function"
    },
    {
      "inputs": [],
      "name": "closeLottery",
      "outputs": [],
      "stateMutability": "nonpayable",
      "type": "function"
    },
    {
      "inputs": [],
      "name": "getRandomNumber",
      "outputs": [
        {
          "internalType": "uint256",
          "name": "randomNumber",
          "type": "uint256"
        }
      ],
      "stateMutability": "view",
      "type": "function"
    },
    {
      "inputs": [
        {
          "internalType": "uint256",
          "name": "closingTime",
          "type": "uint256"
        }
      ],
      "name": "openBets",
      "outputs": [],
      "stateMutability": "nonpayable",
      "type": "function"
    },
    {
      "inputs": [],
      "name": "owner",
      "outputs": [
        {
          "internalType": "address",
          "name": "",
          "type": "address"
        }
      ],
      "stateMutability": "view",
      "type": "function"
    },
    {
      "inputs": [],
      "name": "ownerPool",
      "outputs": [
        {
          "internalType": "uint256",
          "name": "",
          "type": "uint256"
        }
      ],
      "stateMutability": "view",
      "type": "function"
    },
    {
      "inputs": [
        {
          "internalType": "uint256",
          "name": "amount",
          "type": "uint256"
        }
      ],
      "name": "ownerWithdraw",
      "outputs": [],
      "stateMutability": "nonpayable",
      "type": "function"
    },
    {
      "inputs": [],
      "name": "paymentToken",
      "outputs": [
        {
          "internalType": "contract LotteryToken",
          "name": "",
          "type": "address"
        }
      ],
      "stateMutability": "view",
      "type": "function"
    },
    {
      "inputs": [
        {
          "internalType": "address",
          "name": "",
          "type": "address"
        }
      ],
      "name": "prize",
      "outputs": [
        {
          "internalType": "uint256",
          "name": "",
          "type": "uint256"
        }
      ],
      "stateMutability": "view",
      "type": "function"
    },
    {
      "inputs": [],
      "name": "prizePool",
      "outputs": [
        {
          "internalType": "uint256",
          "name": "",
          "type": "uint256"
        }
      ],
      "stateMutability": "view",
      "type": "function"
    },
    {
      "inputs": [
        {
          "internalType": "uint256",
          "name": "amount",
          "type": "uint256"
        }
      ],
      "name": "prizeWithdraw",
      "outputs": [],
      "stateMutability": "nonpayable",
      "type": "function"
    },
    {
      "inputs": [],
      "name": "purchaseRatio",
      "outputs": [
        {
          "internalType": "uint256",
          "name": "",
          "type": "uint256"
        }
      ],
      "stateMutability": "view",
      "type": "function"
    },
    {
      "inputs": [],
      "name": "purchaseTokens",
      "outputs": [],
      "stateMutability": "payable",
      "type": "function"
    },
    {
      "inputs": [],
      "name": "renounceOwnership",
      "outputs": [],
      "stateMutability": "nonpayable",
      "type": "function"
    },
    {
      "inputs": [
        {
          "internalType": "uint256",
          "name": "amount",
          "type": "uint256"
        }
      ],
      "name": "returnTokens",
      "outputs": [],
      "stateMutability": "nonpayable",
      "type": "function"
    },
    {
      "inputs": [
        {
          "internalType": "address",
          "name": "newOwner",
          "type": "address"
        }
      ],
      "name": "transferOwnership",
      "outputs": [],
      "stateMutability": "nonpayable",
      "type": "function"
    }
  ],
  "transactionHash": "0xe045f1580cb9b22accf885c23fec651a14e50670edb3b766aa0af35019496232",
  "args": [
    "betMany Optimized",
    "BMO",
    500,
    "50000000000000000",
    "3000000000000000"
  ],
  "numDeployments": 6,
  "solcInputHash": "8258828c57f5f4a39441830cb0f667ed",
  "bytecode": "0x60806040523480156200001157600080fd5b50604051620025aa380380620025aa8339810160408190526200003491620001da565b6200003f33620000af565b84846040516200004f90620000ff565b6200005c9291906200028d565b604051809103906000f08015801562000079573d6000803e3d6000fd5b50600180546001600160a01b0319166001600160a01b039290921691909117905560029290925560035560045550620002bf9050565b600080546001600160a01b038381166001600160a01b0319831681178455604051919092169283917f8be0079c531659141344cd1fd0a4f28419497f9722a3daafe3b4186f6b6457e09190a35050565b611568806200104283390190565b634e487b7160e01b600052604160045260246000fd5b60005b838110156200014057818101518382015260200162000126565b50506000910152565b600082601f8301126200015b57600080fd5b81516001600160401b03808211156200017857620001786200010d565b604051601f8301601f19908116603f01168101908282118183101715620001a357620001a36200010d565b81604052838152866020858801011115620001bd57600080fd5b620001d084602083016020890162000123565b9695505050505050565b600080600080600060a08688031215620001f357600080fd5b85516001600160401b03808211156200020b57600080fd5b6200021989838a0162000149565b965060208801519150808211156200023057600080fd5b506200023f8882890162000149565b60408801516060890151608090990151979a919950979695509350505050565b600081518084526200027981602086016020860162000123565b601f01601f19169290920160200192915050565b604081526000620002a260408301856200025f565b8281036020840152620002b681856200025f565b95945050505050565b610d7380620002cf6000396000f3fe60806040526004361061012a5760003560e01c8063719ce73e116100ab57806395cadc471161006f57806395cadc47146102e6578063990a49f5146102fc578063cfd8a1751461031c578063d1b258ff14610332578063dbdff2c11461035c578063f2fde38b1461036f57600080fd5b8063719ce73e1461024f578063729e91e914610265578063841e6ce9146102855780638adf9c1f1461029b5780638da5cb5b146102c857600080fd5b806333f707d1116100f257806333f707d1146101c55780633ae1786f146101e55780633cc121e6146102055780636fd0981614610225578063715018a61461023a57600080fd5b806311610c251461012f57806318c34965146101465780632b65e0401461016f5780633013ce29146101855780633290ce29146101bd575b600080fd5b34801561013b57600080fd5b5061014461038f565b005b34801561015257600080fd5b5061015c60085481565b6040519081526020015b60405180910390f35b34801561017b57600080fd5b5061015c60065481565b34801561019157600080fd5b506001546101a5906001600160a01b031681565b6040516001600160a01b039091168152602001610166565b610144610504565b3480156101d157600080fd5b506101446101e0366004610c0e565b610588565b3480156101f157600080fd5b50610144610200366004610c0e565b610672565b34801561021157600080fd5b50610144610220366004610c0e565b610711565b34801561023157600080fd5b50610144610782565b34801561024657600080fd5b5061014461089d565b34801561025b57600080fd5b5061015c60055481565b34801561027157600080fd5b50610144610280366004610c0e565b6108b1565b34801561029157600080fd5b5061015c60045481565b3480156102a757600080fd5b5061015c6102b6366004610c27565b60096020526000908152604090205481565b3480156102d457600080fd5b506000546001600160a01b03166101a5565b3480156102f257600080fd5b5061015c60025481565b34801561030857600080fd5b50610144610317366004610c0e565b610a03565b34801561032857600080fd5b5061015c60035481565b34801561033e57600080fd5b5060075461034c9060ff1681565b6040519015158152602001610166565b34801561036857600080fd5b504461015c565b34801561037b57600080fd5b5061014461038a366004610c27565b610abc565b60075460ff1680156103a2575060085442105b6103e75760405162461bcd60e51b8152602060048201526011602482015270131bdd1d195c9e481a5cc818db1bdcd959607a1b60448201526064015b60405180910390fd5b600454600660008282546103fb9190610c6d565b909155505060035460058054600090610415908490610c6d565b9091555050600a8054600181810183556000929092527fc65a7bb8d6351c1cf70c95a316cc6a92839c986682d98bc35f958f4883f9d2a80180546001600160a01b0319163390811790915590546004546003546001600160a01b0392909216926323b872dd92909130916104899190610c6d565b6040516001600160e01b031960e086901b1681526001600160a01b03938416600482015292909116602483015260448201526064016020604051808303816000875af11580156104dd573d6000803e3d6000fd5b505050506040513d601f19601f820116820180604052508101906105019190610c86565b50565b6001546002546001600160a01b03909116906340c10f199033906105289034610ca8565b6040516001600160e01b031960e085901b1681526001600160a01b0390921660048301526024820152604401600060405180830381600087803b15801561056e57600080fd5b505af1158015610582573d6000803e3d6000fd5b50505050565b610590610b32565b6006548111156105e25760405162461bcd60e51b815260206004820152601960248201527f4e6f7420656e6f756768206665657320636f6c6c65637465640000000000000060448201526064016103de565b80600660008282546105f49190610cbf565b909155505060015460405163a9059cbb60e01b8152336004820152602481018390526001600160a01b039091169063a9059cbb906044016020604051808303816000875af115801561064a573d6000803e3d6000fd5b505050506040513d601f19601f8201168201806040525081019061066e9190610c86565b5050565b60015460405163079cc67960e41b8152336004820152602481018390526001600160a01b03909116906379cc679090604401600060405180830381600087803b1580156106be57600080fd5b505af11580156106d2573d6000803e3d6000fd5b50506002543392506108fc91506106e99084610ce8565b6040518115909202916000818181858888f1935050505015801561066e573d6000803e3d6000fd5b336000908152600960205260409020548111156107635760405162461bcd60e51b815260206004820152601060248201526f4e6f7420656e6f756768207072697a6560801b60448201526064016103de565b33600090815260096020526040812080548392906105f4908490610cbf565b6008544210156107c85760405162461bcd60e51b8152602060048201526011602482015270546f6f20736f6f6e20746f20636c6f736560781b60448201526064016103de565b60075460ff1661080b5760405162461bcd60e51b815260206004820152600e60248201526d105b1c9958591e4818db1bdcd95960921b60448201526064016103de565b600a541561089157600a546000906108239044610cfc565b90506000600a828154811061083a5761083a610d10565b60009182526020808320909101546005546001600160a01b03909116808452600990925260408320805492945090929091610876908490610c6d565b90915550506000600581905561088e90600a90610bdc565b50505b6007805460ff19169055565b6108a5610b32565b6108af6000610b8c565b565b600081116108be57600080fd5b6000816004546108ce9190610ca8565b90506000826003546108e09190610ca8565b90505b821561093e57826108f381610d26565b600a80546001810182556000919091527fc65a7bb8d6351c1cf70c95a316cc6a92839c986682d98bc35f958f4883f9d2a80180546001600160a01b0319163317905593506108e39050565b81600660008282546109509190610c6d565b9250508190555080600560008282546109699190610c6d565b90915550506001546001600160a01b03166323b872dd333061098b8587610c6d565b6040516001600160e01b031960e086901b1681526001600160a01b03938416600482015292909116602483015260448201526064016020604051808303816000875af11580156109df573d6000803e3d6000fd5b505050506040513d601f19601f820116820180604052508101906105829190610c86565b610a0b610b32565b60075460ff1615610a505760405162461bcd60e51b815260206004820152600f60248201526e2637ba3a32b93c9034b99037b832b760891b60448201526064016103de565b428111610aaa5760405162461bcd60e51b815260206004820152602260248201527f436c6f73696e672074696d65206d75737420626520696e207468652066757475604482015261726560f01b60648201526084016103de565b6008556007805460ff19166001179055565b610ac4610b32565b6001600160a01b038116610b295760405162461bcd60e51b815260206004820152602660248201527f4f776e61626c653a206e6577206f776e657220697320746865207a65726f206160448201526564647265737360d01b60648201526084016103de565b61050181610b8c565b6000546001600160a01b031633146108af5760405162461bcd60e51b815260206004820181905260248201527f4f776e61626c653a2063616c6c6572206973206e6f7420746865206f776e657260448201526064016103de565b600080546001600160a01b038381166001600160a01b0319831681178455604051919092169283917f8be0079c531659141344cd1fd0a4f28419497f9722a3daafe3b4186f6b6457e09190a35050565b508054600082559060005260206000209081019061050191905b80821115610c0a5760008155600101610bf6565b5090565b600060208284031215610c2057600080fd5b5035919050565b600060208284031215610c3957600080fd5b81356001600160a01b0381168114610c5057600080fd5b9392505050565b634e487b7160e01b600052601160045260246000fd5b80820180821115610c8057610c80610c57565b92915050565b600060208284031215610c9857600080fd5b81518015158114610c5057600080fd5b8082028115828204841417610c8057610c80610c57565b81810381811115610c8057610c80610c57565b634e487b7160e01b600052601260045260246000fd5b600082610cf757610cf7610cd2565b500490565b600082610d0b57610d0b610cd2565b500690565b634e487b7160e01b600052603260045260246000fd5b600081610d3557610d35610c57565b50600019019056fea264697066735822122096228bcd24ad5e0f75aad6ef01571bdf9530900bb12ac5ef7f0ac0aaccab6e2764736f6c6343000818003360806040523480156200001157600080fd5b506040516200156838038062001568833981016040819052620000349162000206565b8181600362000044838262000301565b50600462000053828262000301565b50620000659150600090503362000099565b620000917f9f2df0fed2c77648de5860a4cc508cd0818c85b8b8a1ab4ceeef8d981c8956a63362000099565b5050620003cd565b60008281526005602090815260408083206001600160a01b038516845290915290205460ff166200013a5760008281526005602090815260408083206001600160a01b03851684529091529020805460ff19166001179055620000f93390565b6001600160a01b0316816001600160a01b0316837f2f8788117e7eff1d82e926ec794901d17c78024a50270940304540a733656f0d60405160405180910390a45b5050565b634e487b7160e01b600052604160045260246000fd5b600082601f8301126200016657600080fd5b81516001600160401b03808211156200018357620001836200013e565b604051601f8301601f19908116603f01168101908282118183101715620001ae57620001ae6200013e565b8160405283815260209250866020858801011115620001cc57600080fd5b600091505b83821015620001f05785820183015181830184015290820190620001d1565b6000602085830101528094505050505092915050565b600080604083850312156200021a57600080fd5b82516001600160401b03808211156200023257600080fd5b620002408683870162000154565b935060208501519150808211156200025757600080fd5b50620002668582860162000154565b9150509250929050565b600181811c908216806200028557607f821691505b602082108103620002a657634e487b7160e01b600052602260045260246000fd5b50919050565b601f821115620002fc576000816000526020600020601f850160051c81016020861015620002d75750805b601f850160051c820191505b81811015620002f857828155600101620002e3565b5050505b505050565b81516001600160401b038111156200031d576200031d6200013e565b62000335816200032e845462000270565b84620002ac565b602080601f8311600181146200036d5760008415620003545750858301515b600019600386901b1c1916600185901b178555620002f8565b600085815260208120601f198616915b828110156200039e578886015182559484019460019091019084016200037d565b5085821015620003bd5787850151600019600388901b60f8161c191681555b5050505050600190811b01905550565b61118b80620003dd6000396000f3fe608060405234801561001057600080fd5b50600436106101425760003560e01c806342966c68116100b8578063a217fddf1161007c578063a217fddf146102a6578063a457c2d7146102ae578063a9059cbb146102c1578063d5391393146102d4578063d547741f146102fb578063dd62ed3e1461030e57600080fd5b806342966c681461023c57806370a082311461024f57806379cc67901461027857806391d148541461028b57806395d89b411461029e57600080fd5b8063248a9ca31161010a578063248a9ca3146101bc5780632f2ff15d146101df578063313ce567146101f457806336568abe14610203578063395093511461021657806340c10f191461022957600080fd5b806301ffc9a71461014757806306fdde031461016f578063095ea7b31461018457806318160ddd1461019757806323b872dd146101a9575b600080fd5b61015a610155366004610e96565b610321565b60405190151581526020015b60405180910390f35b610177610358565b6040516101669190610ee4565b61015a610192366004610f33565b6103ea565b6002545b604051908152602001610166565b61015a6101b7366004610f5d565b610402565b61019b6101ca366004610f99565b60009081526005602052604090206001015490565b6101f26101ed366004610fb2565b610426565b005b60405160128152602001610166565b6101f2610211366004610fb2565b610450565b61015a610224366004610f33565b6104d3565b6101f2610237366004610f33565b6104f5565b6101f261024a366004610f99565b610529565b61019b61025d366004610fde565b6001600160a01b031660009081526020819052604090205490565b6101f2610286366004610f33565b610536565b61015a610299366004610fb2565b61054b565b610177610576565b61019b600081565b61015a6102bc366004610f33565b610585565b61015a6102cf366004610f33565b610600565b61019b7f9f2df0fed2c77648de5860a4cc508cd0818c85b8b8a1ab4ceeef8d981c8956a681565b6101f2610309366004610fb2565b61060e565b61019b61031c366004610ff9565b610633565b60006001600160e01b03198216637965db0b60e01b148061035257506301ffc9a760e01b6001600160e01b03198316145b92915050565b60606003805461036790611023565b80601f016020809104026020016040519081016040528092919081815260200182805461039390611023565b80156103e05780601f106103b5576101008083540402835291602001916103e0565b820191906000526020600020905b8154815290600101906020018083116103c357829003601f168201915b5050505050905090565b6000336103f881858561065e565b5060019392505050565b600033610410858285610782565b61041b8585856107fc565b506001949350505050565b600082815260056020526040902060010154610441816109a0565b61044b83836109aa565b505050565b6001600160a01b03811633146104c55760405162461bcd60e51b815260206004820152602f60248201527f416363657373436f6e74726f6c3a2063616e206f6e6c792072656e6f756e636560448201526e103937b632b9903337b91039b2b63360891b60648201526084015b60405180910390fd5b6104cf8282610a30565b5050565b6000336103f88185856104e68383610633565b6104f09190611073565b61065e565b7f9f2df0fed2c77648de5860a4cc508cd0818c85b8b8a1ab4ceeef8d981c8956a661051f816109a0565b61044b8383610a97565b6105333382610b56565b50565b610541823383610782565b6104cf8282610b56565b60009182526005602090815260408084206001600160a01b0393909316845291905290205460ff1690565b60606004805461036790611023565b600033816105938286610633565b9050838110156105f35760405162461bcd60e51b815260206004820152602560248201527f45524332303a2064656372656173656420616c6c6f77616e63652062656c6f77604482015264207a65726f60d81b60648201526084016104bc565b61041b828686840361065e565b6000336103f88185856107fc565b600082815260056020526040902060010154610629816109a0565b61044b8383610a30565b6001600160a01b03918216600090815260016020908152604080832093909416825291909152205490565b6001600160a01b0383166106c05760405162461bcd60e51b8152602060048201526024808201527f45524332303a20617070726f76652066726f6d20746865207a65726f206164646044820152637265737360e01b60648201526084016104bc565b6001600160a01b0382166107215760405162461bcd60e51b815260206004820152602260248201527f45524332303a20617070726f766520746f20746865207a65726f206164647265604482015261737360f01b60648201526084016104bc565b6001600160a01b0383811660008181526001602090815260408083209487168084529482529182902085905590518481527f8c5be1e5ebec7d5bd14f71427d1e84f3dd0314c0f7b2291e5b200ac8c7c3b925910160405180910390a3505050565b600061078e8484610633565b905060001981146107f657818110156107e95760405162461bcd60e51b815260206004820152601d60248201527f45524332303a20696e73756666696369656e7420616c6c6f77616e636500000060448201526064016104bc565b6107f6848484840361065e565b50505050565b6001600160a01b0383166108605760405162461bcd60e51b815260206004820152602560248201527f45524332303a207472616e736665722066726f6d20746865207a65726f206164604482015264647265737360d81b60648201526084016104bc565b6001600160a01b0382166108c25760405162461bcd60e51b815260206004820152602360248201527f45524332303a207472616e7366657220746f20746865207a65726f206164647260448201526265737360e81b60648201526084016104bc565b6001600160a01b0383166000908152602081905260409020548181101561093a5760405162461bcd60e51b815260206004820152602660248201527f45524332303a207472616e7366657220616d6f756e7420657863656564732062604482015265616c616e636560d01b60648201526084016104bc565b6001600160a01b03848116600081815260208181526040808320878703905593871680835291849020805487019055925185815290927fddf252ad1be2c89b69c2b068fc378daa952ba7f163c4a11628f55a4df523b3ef910160405180910390a36107f6565b6105338133610c88565b6109b4828261054b565b6104cf5760008281526005602090815260408083206001600160a01b03851684529091529020805460ff191660011790556109ec3390565b6001600160a01b0316816001600160a01b0316837f2f8788117e7eff1d82e926ec794901d17c78024a50270940304540a733656f0d60405160405180910390a45050565b610a3a828261054b565b156104cf5760008281526005602090815260408083206001600160a01b0385168085529252808320805460ff1916905551339285917ff6391f5c32d9c69d2a47ea670b442974b53935d1edc7fd64eb21e047a839171b9190a45050565b6001600160a01b038216610aed5760405162461bcd60e51b815260206004820152601f60248201527f45524332303a206d696e7420746f20746865207a65726f20616464726573730060448201526064016104bc565b8060026000828254610aff9190611073565b90915550506001600160a01b038216600081815260208181526040808320805486019055518481527fddf252ad1be2c89b69c2b068fc378daa952ba7f163c4a11628f55a4df523b3ef910160405180910390a35050565b6001600160a01b038216610bb65760405162461bcd60e51b815260206004820152602160248201527f45524332303a206275726e2066726f6d20746865207a65726f206164647265736044820152607360f81b60648201526084016104bc565b6001600160a01b03821660009081526020819052604090205481811015610c2a5760405162461bcd60e51b815260206004820152602260248201527f45524332303a206275726e20616d6f756e7420657863656564732062616c616e604482015261636560f01b60648201526084016104bc565b6001600160a01b0383166000818152602081815260408083208686039055600280548790039055518581529192917fddf252ad1be2c89b69c2b068fc378daa952ba7f163c4a11628f55a4df523b3ef910160405180910390a3505050565b610c92828261054b565b6104cf57610c9f81610ce1565b610caa836020610cf3565b604051602001610cbb929190611086565b60408051601f198184030181529082905262461bcd60e51b82526104bc91600401610ee4565b60606103526001600160a01b03831660145b60606000610d028360026110fb565b610d0d906002611073565b67ffffffffffffffff811115610d2557610d25611112565b6040519080825280601f01601f191660200182016040528015610d4f576020820181803683370190505b509050600360fc1b81600081518110610d6a57610d6a611128565b60200101906001600160f81b031916908160001a905350600f60fb1b81600181518110610d9957610d99611128565b60200101906001600160f81b031916908160001a9053506000610dbd8460026110fb565b610dc8906001611073565b90505b6001811115610e40576f181899199a1a9b1b9c1cb0b131b232b360811b85600f1660108110610dfc57610dfc611128565b1a60f81b828281518110610e1257610e12611128565b60200101906001600160f81b031916908160001a90535060049490941c93610e398161113e565b9050610dcb565b508315610e8f5760405162461bcd60e51b815260206004820181905260248201527f537472696e67733a20686578206c656e67746820696e73756666696369656e7460448201526064016104bc565b9392505050565b600060208284031215610ea857600080fd5b81356001600160e01b031981168114610e8f57600080fd5b60005b83811015610edb578181015183820152602001610ec3565b50506000910152565b6020815260008251806020840152610f03816040850160208701610ec0565b601f01601f19169190910160400192915050565b80356001600160a01b0381168114610f2e57600080fd5b919050565b60008060408385031215610f4657600080fd5b610f4f83610f17565b946020939093013593505050565b600080600060608486031215610f7257600080fd5b610f7b84610f17565b9250610f8960208501610f17565b9150604084013590509250925092565b600060208284031215610fab57600080fd5b5035919050565b60008060408385031215610fc557600080fd5b82359150610fd560208401610f17565b90509250929050565b600060208284031215610ff057600080fd5b610e8f82610f17565b6000806040838503121561100c57600080fd5b61101583610f17565b9150610fd560208401610f17565b600181811c9082168061103757607f821691505b60208210810361105757634e487b7160e01b600052602260045260246000fd5b50919050565b634e487b7160e01b600052601160045260246000fd5b808201808211156103525761035261105d565b7f416363657373436f6e74726f6c3a206163636f756e74200000000000000000008152600083516110be816017850160208801610ec0565b7001034b99036b4b9b9b4b733903937b6329607d1b60179184019182015283516110ef816028840160208801610ec0565b01602801949350505050565b80820281158282048414176103525761035261105d565b634e487b7160e01b600052604160045260246000fd5b634e487b7160e01b600052603260045260246000fd5b60008161114d5761114d61105d565b50600019019056fea2646970667358221220a0331acb5c71c43fdf983371f0b64f5c5cf03b5077a898d679a8fd4c9a0b2d3e64736f6c63430008180033",
  "devdoc": {
    "author": "Matheus Pagani",
    "custom:teaching": "This is a contract meant for teaching only",
    "details": "This contract implements a relatively weak randomness source, since there is no cliff period between the randao reveal and the actual usage in this contract",
    "kind": "dev",
    "methods": {
      "closeLottery()": {
        "details": "Anyone can call this function at any time after the closing time"
      },
      "constructor": {
        "params": {
          "_betFee": "Amount of tokens required for placing a bet that goes for the owner pool",
          "_betPrice": "Amount of tokens required for placing a bet that goes for the prize pool",
          "_purchaseRatio": "Amount of tokens given per ETH paid",
          "tokenName": "Name of the token used for payment",
          "tokenSymbol": "Symbol of the token used for payment"
        }
      },
      "getRandomNumber()": {
        "details": "This only works after The Merge"
      },
      "owner()": {
        "details": "Returns the address of the current owner."
      },
      "purchaseTokens()": {
        "details": "This implementation is prone to rounding problems"
      },
      "renounceOwnership()": {
        "details": "Leaves the contract without owner. It will not be possible to call `onlyOwner` functions anymore. Can only be called by the current owner. NOTE: Renouncing ownership will leave the contract without an owner, thereby removing any functionality that is only available to the owner."
      },
      "transferOwnership(address)": {
        "details": "Transfers ownership of the contract to a new account (`newOwner`). Can only be called by the current owner."
      }
    },
    "stateVariables": {
      "_slots": {
        "details": "List of bet slots"
      }
    },
    "title": "A very simple lottery contract",
    "version": 1
  },
  "userdoc": {
    "kind": "user",
    "methods": {
      "bet()": {
        "notice": "Charges the bet price and creates a new bet slot with the sender's address"
      },
      "betFee()": {
        "notice": "Amount of tokens required for placing a bet that goes for the owner pool"
      },
      "betMany(uint256)": {
        "notice": "Calls the bet function `times` times"
      },
      "betPrice()": {
        "notice": "Amount of tokens required for placing a bet that goes for the prize pool"
      },
      "betsClosingTime()": {
        "notice": "Timestamp of the lottery next closing date and time"
      },
      "betsOpen()": {
        "notice": "Flag indicating whether the lottery is open for bets or not"
      },
      "closeLottery()": {
        "notice": "Closes the lottery and calculates the prize, if any"
      },
      "constructor": {
        "notice": "Constructor function"
      },
      "getRandomNumber()": {
        "notice": "Returns a random number calculated from the previous block randao"
      },
      "openBets(uint256)": {
        "notice": "Opens the lottery for receiving bets"
      },
      "ownerPool()": {
        "notice": "Amount of tokens in the owner pool"
      },
      "ownerWithdraw(uint256)": {
        "notice": "Withdraws `amount` from the owner's pool"
      },
      "paymentToken()": {
        "notice": "Address of the token used as payment for the bets"
      },
      "prize(address)": {
        "notice": "Mapping of prize available for withdraw for each account"
      },
      "prizePool()": {
        "notice": "Amount of tokens in the prize pool"
      },
      "prizeWithdraw(uint256)": {
        "notice": "Withdraws `amount` from that accounts's prize pool"
      },
      "purchaseRatio()": {
        "notice": "Amount of tokens given per ETH paid"
      },
      "purchaseTokens()": {
        "notice": "Gives tokens based on the amount of ETH sent"
      },
      "returnTokens(uint256)": {
        "notice": "Burns `amount` tokens and give the equivalent ETH back to user"
      }
    },
    "notice": "You can use this contract for running a very simple lottery",
    "version": 1
  },
  "storageLayout": {
    "storage": [
      {
        "astId": 396,
        "contract": "contracts/Lottery.sol:Lottery",
        "label": "_owner",
        "offset": 0,
        "slot": "0",
        "type": "t_address"
      },
      {
        "astId": 2346,
        "contract": "contracts/Lottery.sol:Lottery",
        "label": "paymentToken",
        "offset": 0,
        "slot": "1",
        "type": "t_contract(LotteryToken)2793"
      },
      {
        "astId": 2349,
        "contract": "contracts/Lottery.sol:Lottery",
        "label": "purchaseRatio",
        "offset": 0,
        "slot": "2",
        "type": "t_uint256"
      },
      {
        "astId": 2352,
        "contract": "contracts/Lottery.sol:Lottery",
        "label": "betPrice",
        "offset": 0,
        "slot": "3",
        "type": "t_uint256"
      },
      {
        "astId": 2355,
        "contract": "contracts/Lottery.sol:Lottery",
        "label": "betFee",
        "offset": 0,
        "slot": "4",
        "type": "t_uint256"
      },
      {
        "astId": 2358,
        "contract": "contracts/Lottery.sol:Lottery",
        "label": "prizePool",
        "offset": 0,
        "slot": "5",
        "type": "t_uint256"
      },
      {
        "astId": 2361,
        "contract": "contracts/Lottery.sol:Lottery",
        "label": "ownerPool",
        "offset": 0,
        "slot": "6",
        "type": "t_uint256"
      },
      {
        "astId": 2364,
        "contract": "contracts/Lottery.sol:Lottery",
        "label": "betsOpen",
        "offset": 0,
        "slot": "7",
        "type": "t_bool"
      },
      {
        "astId": 2367,
        "contract": "contracts/Lottery.sol:Lottery",
        "label": "betsClosingTime",
        "offset": 0,
        "slot": "8",
        "type": "t_uint256"
      },
      {
        "astId": 2372,
        "contract": "contracts/Lottery.sol:Lottery",
        "label": "prize",
        "offset": 0,
        "slot": "9",
        "type": "t_mapping(t_address,t_uint256)"
      },
      {
        "astId": 2376,
        "contract": "contracts/Lottery.sol:Lottery",
        "label": "_slots",
        "offset": 0,
        "slot": "10",
        "type": "t_array(t_address)dyn_storage"
      }
    ],
    "types": {
      "t_address": {
        "encoding": "inplace",
        "label": "address",
        "numberOfBytes": "20"
      },
      "t_array(t_address)dyn_storage": {
        "base": "t_address",
        "encoding": "dynamic_array",
        "label": "address[]",
        "numberOfBytes": "32"
      },
      "t_bool": {
        "encoding": "inplace",
        "label": "bool",
        "numberOfBytes": "1"
      },
      "t_contract(LotteryToken)2793": {
        "encoding": "inplace",
        "label": "contract LotteryToken",
        "numberOfBytes": "20"
      },
      "t_mapping(t_address,t_uint256)": {
        "encoding": "mapping",
        "key": "t_address",
        "label": "mapping(address => uint256)",
        "numberOfBytes": "32",
        "value": "t_uint256"
      },
      "t_uint256": {
        "encoding": "inplace",
        "label": "uint256",
        "numberOfBytes": "32"
      }
    }
  }
}